:100000000C9483000C94B2000C94B2000C94B200D7
:100010000C94B2000C94B2000C94B2000C94DB0F60
:100020000C94B2000C94B2000C94B2000C948002B8
:100030000C940B020C94B2000C94B2000C94B2001D
:100040000C94AA0A0C94B2000C94B2000C94B20066
:100050000C94B2000C94B2000C94B2000C94B20058
:100060000C94B2000C94B2000C94B2000C94B20048
:100070000C94B2000C94B2000C94B2000C94B20038
:100080000C94B2000C94B2000C94B2000C94B20028
:100090000C94B2000C94B2000C94B2000C94B20018
:1000A0000C94B2000C94B2000C94B2000C94B20008
:1000B0000C94B200000000080002010000030407D5
:1000C0000000000000000000010204081020408031
:1000D0000102040810200102040810200404040492
:1000E00004040404020202020202030303030303E2
:1000F00000000000250028002B0000000000240064
:1001000027002A00020011241FBECFEFD8E0DEBF77
:10011000CDBFA89584B780936C0384B7877F84BFD5
:100120000FB6F894A8958091600088618093600074
:10013000109260000FBE13E0A0E0B1E0E6EEF5E241
:1001400002C005900D92A630B107D9F723E0A6E0D2
:10015000B3E001C01D92AC36B207E1F70E94C105C1
:100160000C9438100C940000FF920F931F93CF93C0
:10017000DF93EC01F62E08811981C8010E94DB1281
:10018000F81621F06F2DC8010E94E312CE01DF9115
:10019000CF911F910F91FF9008950F931F93CF93CD
:1001A000DF9300D0CDB7DEB78C01FC01868197814B
:1001B00020813181821793072CF022813381281707
:1001C00039072CF4F8018481958197838683F8019F
:1001D0006781808590E09A838983CE0101960E9491
:1001E000B400F8016681818590E09A838983CE010D
:1001F00001960E94B4000F900F90DF91CF911F9154
:100200000F9108951F93CF93DF93EC01888590E0C1
:100210000E94DB12182F898590E00E94DB12912F3B
:1002200028813981821793075CF02A813B81281746
:10023000390734F09F838E83DF91CF911F9108950A
:100240008C819D81F7CFEDEAF1E0848195819783E0
:100250008683E3EAF1E08481958197838683E9E9E7
:10026000F1E08481958197838683EFE8F1E08481D2
:10027000958197838683E5E8F1E084819581978372
:100280008683E9E4F1E08481958197838683EBE7B7
:10029000F1E08481958197838683E1E7F1E08481B1
:1002A000958197838683E7E6F1E084819581978342
:1002B0008683EFE3F1E084819581978386831092B2
:1002C00064011092630110925A0110925901EDE0FD
:1002D000F1E08481958197838683E3E0F1E0848176
:1002E000958197838683E5E3F1E084819581978307
:1002F0008683EBE2F1E08481958197838683E1E256
:10030000F1E08481958197838683E7E1F1E0848140
:100310009581978386838DEA91E00E94CD0083EAE0
:1003200091E00E94CD0089E991E00E94CD008FE824
:1003300091E00E94CD0085E891E00E94CD0089E423
:1003400091E00E94CD008BE791E00E94CD0081E713
:1003500091E00E94CD0087E691E00E94CD008FE3FE
:1003600091E00E94CD008DE591E00E94CD0083E5F3
:1003700091E00E94CD008DE091E00E94CD0083E0ED
:1003800091E00E94CD0085E391E00E94CD008BE2D8
:1003900091E00E94CD0081E291E00E94CD0087E1D2
:1003A00091E00C94CD00E62FF0E0EB5FFD4F9081E3
:1003B00041119F7EE82FF0E0E954FE4F90830895AD
:1003C0009FB7F894E1E8F0E080818C7F80838081A2
:1003D00084608083A0E8B0E08C918C7F8C938081D6
:1003E0008860808380818F7E80838C918F708C93D6
:1003F00020E832E0309389002093880028E030E044
:1004000030938B0020938A00EFE6F0E080818660D5
:1004100080839FBF08951F920F920FB60F921124F1
:100420002F938F939F93EF93FF93809109038F5F97
:100430008831A9F080930903E0910903E770E15046
:100440008EEFE73080F4F0E0E85DFD4F0C94B412DD
:100450003202410243024502470249024B02109216
:100460000903EACF8DEF9FEF9BB990910903969511
:10047000969596959130C1F080F09230E9F02898E9
:1004800011C08BEFF0CF87EFEECF8FEEECCF8FED7B
:10049000EACF8FEBE8CF8FE7E6CF289A9091B701AC
:1004A000892B8BB92F9806C02F9A9091B801892B70
:1004B0008BB928982E9807C02E9A9091B901892B54
:1004C0008BB928982F9880918A0090918B00803862
:1004D000924081F488E090E090938B0080938A00B2
:1004E000FF91EF919F918F912F910F900FBE0F90E1
:1004F0001F90189580918A0090918B000896ECCF00
:100500001F920F920FB60F9211242F933F934F9388
:100510008F939F9383B120913803809528279091E2
:100520000803392F32233095309308038091070355
:10053000482F4223342730930703892B8095822349
:100540009091380398279093380390913803209125
:1005500037038923822B8093370380913803847279
:1005600019F484E180930603809106038150A9F079
:1005700080930603809135038F5F80933503833327
:1005800010F0109235039F918F914F913F912F91D1
:100590000F900FBE0F901F90189588E08093060370
:1005A00080913803909136038472892B80933603AF
:1005B000E1CFF894909137038923909137039827DE
:1005C0009093370378940895F89490913603892393
:1005D0009091360398279093360378940895F89471
:1005E00090913803909589230C94D9029091370308
:1005F00089230E94E4020C94D902909137039095CC
:1006000089230C94E402909137039823981380E097
:100610000C94D902909137039823981380E090911D
:10062000380389230895A89584B7877F84BF0FB6C0
:10063000F894A89580916000886180936000109282
:1006400060000FBE0895A89584B7877F84BF88E1B6
:100650009BE00FB6F894A895809360000FBE90932E
:1006600060000895A89584B7877F84BF88E19BE0E8
:100670000FB6F894A895809360000FBE9093600029
:1006800068E270E080E090E00E94250B0C94130378
:100690000F931F93CF93DF9380913F0380FF16C08A
:1006A000DFB7F89409E313E0C0E0F80143810F5F7E
:1006B0001F4F60818C2F0E94D301CF5FC330A9F7F9
:1006C00080913F038E7F80933F03DFBFDF91CF9107
:1006D0001F910F910895E9E3F3E08FEF8083818309
:1006E0008283138214821582EFE3F3E080818160BC
:1006F00080830C944803FC018FEF8093390380932F
:100700003A0380933B0310923C0310923D031092F6
:100710003E038081882359F080933B0381818823A5
:1007200031F080933A038281811180933903809163
:100730003F03816080933F030C944803299A4398B8
:100740002B9A60ED77E080E090E00E94250B83E13A
:100750000E94B60B20911301309114018217930768
:1007600038F02091090130910A0128173907F8F46F
:10077000439A2B988CEB91E00E947B0368EE73E028
:1007800080E090E00E94250B80EC91E00E947B03CA
:1007900060ED77E080E090E00E94250B0E946B0303
:1007A00068EE73E080E090E00E94250BE3CF439A6F
:1007B0002B981C9B1DC084EC91E00E947B0368EE8B
:1007C00073E080E090E00E94250B88EC91E00E94AD
:1007D0007B0360ED77E080E090E00E94250B0E94B3
:1007E0006B0368EE73E080E090E00E94250BE1CFA0
:1007F000089581E080933C03EFE3F3E08081816022
:1008000080830C94480310923C03EFE3F3E0808173
:10081000816080830C94480381E080933D03EFE383
:10082000F3E08081816080830C94480310923D0343
:10083000EFE3F3E08081816080830C9448039C01A6
:1008400097FF2AC081E080933C0380933D0380930F
:100850003E03319521953109EAE0F0E0C901BF017D
:100860000E945F1280933903CB01BF010E945F1287
:1008700080933A03C90164E670E00E945F12CB01E5
:10088000BF010E945F1280933B0380913F03816010
:1008900080933F030C94480310923D0310923E0353
:1008A000DBCF299A219A84B18B7D84B985B184628A
:1008B00085B924982C9A439A3B9A8AB18FEF8AB9CA
:1008C00084B1816C84B9239A1DB88FE08EB90E94DF
:1008D000E00180E00E94B30B90E080E00E94DB1218
:1008E000823239F00E94230162E290E080E00E94AF
:1008F000E3121D994CC01A994AC00E9423018DEA47
:1009000091E00E94020183EA91E00E94020189E9DC
:1009100091E00E9402018FE891E00E94020185E8C7
:1009200091E00E94020189E491E00E9402018BE7BC
:1009300091E00E94020181E791E00E94020187E6B6
:1009400091E00E9402018FE391E00E9402018DE597
:1009500091E00E94020183E591E00E94020185E39B
:1009600091E00E9402018BE291E00E94020181E28B
:1009700091E00E94020187E191E00E9402018DE076
:1009800091E00E94020183E091E00C9402011D9924
:10099000B6CF8CEB91E00E947B0368EE73E080E0C1
:1009A00090E00E94250B8CEC91E00E947B0368EEA6
:1009B00073E080E090E00E94250B439864EF71E0C3
:1009C00080E090E00E94250B83E10E94B60B0E941C
:1009D0001F04F4CF1F93CF93DF93EC01CB010E9450
:1009E0007B036EEE72E080E090E00E94250B80E2D7
:1009F0000E94EF02882369F08E819F812A813B81CA
:100A00008217930714F011E037C001969F838E83FD
:100A1000FACF84E00E94EF02882349F08E819F8103
:100A2000288139812817390774F70197EFCF80E2C1
:100A30000E94F602882359F08E819F812A813B8192
:100A40002A50310982179307F4F60A96DFCF80E225
:100A50000E94FD028111F0CF84E00E94F602811114
:100A600022C084E00E94FD0281111DC084E20E9428
:100A7000030311E0811110E08E819F810E941F0409
:100A8000113009F4B4CF0E940C04CE010E94CD00B5
:100A900068EE73E080E090E00E94250BDF91CF913B
:100AA0001F910C9416048E819F8128813981265FC5
:100AB0003F4F281739070CF0A6CF0A97A7CFE9E3D5
:100AC000F3E089E0808384E0818381E08283138284
:100AD00014828583EFE3F3E08081816080830E944C
:100AE000480324E130E040E050E060ED77E082E14F
:100AF0000C94810C8CB180958F7008950F931F9387
:100B0000CF93DF93EC010E94F40A00912B03109124
:100B10002C0320912D0330912E03601B710B820B4F
:100B2000930B603D77408105910570F4D09382016D
:100B3000C093810181E080932F030E947A05823067
:100B4000B1F038F4813071F0DF91CF911F910F91A6
:100B50000895843089F08830B9F7D0931E01C0938E
:100B60001D01F2CFD0933C01C0933B01EDCFD09358
:100B70003201C0933101E8CFD0932801C0932701FF
:100B8000E3CF0E945E0B0E94510480916C0383FFAF
:100B900016C0299A43982B9A80ED91E00E947B031E
:100BA00068EE73E080E090E00E94250B0E946B03EA
:100BB00068EE73E080E090E00E94250BEDCF0E948C
:100BC0005F050E9432030E949E030E9423038AE075
:100BD000282E332433948EE00E94B60BEC012C9E19
:100BE000C0012D9E900D112460914F017091500114
:100BF0000E944B1280918B0190918C01680F791F9C
:100C000077FDD2C070932503609324038091630124
:100C100090916401019709F4CCC01C9BCAC01C9937
:100C2000D4C0299A0E940304609124037091250383
:100C3000072E000C880B990B0091200310912103C3
:100C40002091220330912303600F711F821F931F95
:100C500060932003709321038093220390932303D6
:100C600020910A0330910B032F5F3F4F30930B030A
:100C700020930A034091770150917801241735079A
:100C8000F1F440911E0350911F0350931D034093B4
:100C90001C03032E000C440B550B0E94951230933D
:100CA0001F0320931E031092200310922103109221
:100CB00022031092230310920B0310920A038091D7
:100CC0000201811116C01C9914C0809130039091CB
:100CD00031038C3241E094070CF093C1019690935C
:100CE00031038093300361E070E080E090E00E9487
:100CF000250B80910201882341F01C9B06C01092B5
:100D0000020130920001109201010E94F40A009148
:100D10000C0310910D0320910E0330910F036B0112
:100D20007C01C01AD10AE20AF30AA0916D01B091C8
:100D30006E0120E63AEE0E94BA126C157D058E0512
:100D40009F0578F48091010181110BC024E630E009
:100D500040E050E068EE73E082E10E94810C309246
:100D600001011C9B09C080911E0390911F038536D1
:100D7000910514F0309234031C990DC080916301E9
:100D800090916401892B39F480911E0390911F0387
:100D90008E970CF054C11C9B44C11C9BBAC11C9B78
:100DA000C8C143982B984DC110922503109224037B
:100DB0002DCF299A0E94F40A60930C0370930D03BF
:100DC00080930E0390930F032DCF209181013091DA
:100DD000820180917B0190917C01281739070CF4E6
:100DE00020CF80911E0390911F03843F91400CF00F
:100DF00018CF0E94F40A00910C0310910D0320916A
:100E00000E0330910F036B017C01C01AD10AE20A74
:100E1000F30AA0916D01B0916E0120E63AEE0E94B6
:100E2000BA12C616D706E806F90608F0FACE4398B5
:100E300080911E0390911F03C0908101D090820188
:100E4000C81AD90A00911C0310911D03081B190B25
:100E5000C601D7FE04C0882799278C199D092091C7
:100E60009501309196010D2C000CEE08FF088217B9
:100E700093070CF0B9C08091140390911503A091D1
:100E80001603B09117038C0D9D1DAE1DBF1D8093E1
:100E9000140390931503A0931603B0931703609166
:100EA00014037091150380911603909117030E940B
:100EB00052114B015C016091A9017091AA01072EAA
:100EC000000C880B990B0E94521120E030E44CE199
:100ED00056E40E94A8109B01AC01C501B4010E9418
:100EE000DE114B015C016091B3017091B401072EDA
:100EF000000C880B990B0E94521120E030E048EC66
:100F000052E40E94A8102B013C01C701B6010E94C7
:100F100052119B01AC01C301B2010E94DE119B0181
:100F2000AC01C501B4010E943C106B017C016091D1
:100F30009F017091A001072E000C880B990B0E9455
:100F4000521120E030E048EC51E40E94A8104B011F
:100F50005C01B801110F880B990B0E9452119B0183
:100F6000AC01C501B4010E94DE119B01AC01C701B7
:100F7000B6010E943C100E941A11709319036093ED
:100F800018036130724034F080E092E090931903CE
:100F900080931803809118039091190397FF04C060
:100FA000109219031092180320911A0330911B0319
:100FB000809118039091190328173907F4F40E94BF
:100FC000F903299880911A0390911B03019690933D
:100FD0001B0380931A038115924009F025CE1092CD
:100FE0001B0310921A0320CE1092140310921503C3
:100FF000109216031092170352CF299A0E940304ED
:10100000E1CF109231031092300324E630E040E04B
:1010100050E068EE73E082E10E94810C30920201A0
:1010200068CE8091630190916401019709F0B5CE7B
:1010300080911E0390911F0387970CF4AECE4398C6
:101040002B9A0E947A05882309F4ACC0809326036A
:101050000E94F40A60932703709328038093290366
:1010600090932A0380E20E94EF02882309F4ECC0E7
:10107000809181019091820120917D0130917E01CA
:101080008217930774F401960E947E053092000146
:1010900024E130E040E050E060ED77E082E10E9442
:1010A000810C0E94F40A60932B0370932C038093AD
:1010B0002D0390932E0380911E0390911F03843F74
:1010C00091402CF4C93E83E0D80708F488C1299ADE
:1010D00043982B9A0E9413038AEF91E00E947B03AE
:1010E00068EE73E080E090E00E94250B8DEF91E0C8
:1010F0000E947B0360ED77E080E090E00E94250B8A
:101100000E946B0368EE73E080E090E00E94250B84
:10111000E3CF8091630190916401019709F03FCE84
:1011200080911E0390911F0387970CF038CE439A4D
:1011300039CE8091630190916401892B09F031CE01
:1011400080911E0390911F038E970CF02ACE809100
:10115000320390913303609145017091460148EE4E
:1011600053E0649F9001659F300D749F300D1124F2
:101170008217930784F420913403222361F00196AF
:10118000909333038093320361E070E080E090E05D
:101190000E94250B56CF1092330310923203109207
:1011A0003403C5CF80912603882309F45BCFC09018
:1011B0002703D0902803E0902903F0902A0359E1F7
:1011C000C50ED11CE11CF11C0E94F40AC616D706FC
:1011D000E806F90608F046CF80912603823021F117
:1011E00078F48130B1F00E94F40A60932B0370937D
:1011F0002C0380932D0390932E031092260332CF5D
:101200008430E9F0883079F780911D0190911E01BA
:101210000FC020913B0130913C013093820120931B
:10122000810180932F03DFCF8091310190913201B2
:10123000909382018093810130922F03D4CF8091CB
:10124000270190912801F4CF84E00E94EF028823C7
:1012500071F0809181019091820120917B01309108
:101260007C01281739070CF01CCF01970DCF80E2C5
:101270000E94F60281116FC080E20E94FD0281117E
:101280006AC084E00E94F602811176C084E00E9468
:10129000FD02811171C084E20E940A03882309F4CF
:1012A0000ACF299A0E9413036DE571E080E090E077
:1012B0000E94250B84E20E94F602882309F470C084
:1012C00068EE71E08DEA91E00E94EA0464ED71E05D
:1012D00083EA91E00E94EA0462EC71E089E991E01E
:1012E0000E94EA0466ED71E08FE891E00E94EA0452
:1012F0006AED71E085E891E00E94EA046EED71E02C
:1013000089E491E00E94EA0462EE71E081E791E0F5
:101310000E94EA0466EE71E087E691E00E94EA042A
:101320006AEE71E08FE391E00E94EA046EEE71E0F4
:1013300083E591E00E94EA0462EF71E08DE091E0C4
:101340000E94EA0466EF71E083E091E00E94EA0403
:101350000E942303B0CE20918101309182018091BF
:101360007D0190917E01AC014A5051092417350747
:10137000A4F4C9010A9688CE20918101309182019E
:1013800080917B0190917C01AC01465F5F4F4217D9
:1013900053071CF4C9010A9777CE0E947E0581CEBF
:1013A00084E20E94D90280916301909164019C01C2
:1013B00041E02427309364012093630130922F038E
:1013C000019751F40E94F40A60932B0370932C034D
:1013D00080932D0390932E0310923503B9CF0E9472
:1013E000F40A00912B0310912C0320912D033091CE
:1013F0002E03601B710B820B930B603D77408105C0
:101400009105B8F580913503853028F080918101F0
:101410009091820175C00E94F40A00912B031091F3
:101420002C0320912D0330912E03601B710B820B36
:10143000930B653F71408105910540F30E946B035A
:101440000E94F40A009110031091110320911203DD
:1014500030911303601B710B820B930B653F71403E
:101460008105910510F00E9416040E944803A8957A
:10147000B2CB80912F03882339F10E940C048BE7B3
:1014800091E00E94CD0085E391E00E94CD008BE2C7
:1014900091E00E94CD0081E291E00E94CD0087E1C1
:1014A00091E00E94CD008DE591E00E94CD000E9468
:1014B000F40A6093100370931103809312039093C6
:1014C000130310922F03BCCF80911E0390911F0332
:1014D00020916301309164018932910554F481E0D7
:1014E00092E02130310511F48CEB91E00E947B03F6
:1014F000A7CF2130310539F4209135032431A0F3F1
:101500000E941F049DCF2091590130915A01213032
:10151000310511F4CE01F4CF209181013091820187
:10152000AC01421B530B9A012E5F3F4F2530310512
:1015300038F780910001882309F468CF24E630E071
:1015400040E050E06CED75E082E10E94810C109269
:1015500000015CCF1F920F920FB60F9211242F93B0
:101560003F938F939F93AF93BF938091410390914B
:101570004203A0914303B09144033091400323E020
:10158000230F2D3758F50196A11DB11D209340035F
:101590008093410390934203A0934303B093440389
:1015A0008091450390914603A0914703B091480371
:1015B0000196A11DB11D8093450390934603A0930E
:1015C0004703B0934803BF91AF919F918F913F9193
:1015D0002F910F900FBE0F901F90189526E8230FA4
:1015E0000296A11DB11DD2CF2FB7F894609141038F
:1015F0007091420380914303909144032FBF08955B
:101600003FB7F8948091450390914603A09147031A
:10161000B091480326B5A89B05C02F3F19F001964D
:10162000A11DB11D3FBFBA2FA92F982F8827BC013C
:10163000CD01620F711D811D911D42E0660F771F64
:10164000881F991F4A95D1F708958F929F92AF9264
:10165000BF92CF92DF92EF92FF926B017C010E94CA
:10166000000B4B015C01C114D104E104F104E9F069
:101670000E9437100E94000B681979098A099B099A
:10168000683E73408105910570F321E0C21AD108CC
:10169000E108F10888EE880E83E0981EA11CB11CB9
:1016A000C114D104E104F10429F7FF90EF90DF9019
:1016B000CF90BF90AF909F908F900895789484B50D
:1016C000826084BD84B5816084BD85B5826085BD3E
:1016D00085B5816085BDEEE6F0E080818160808324
:1016E000E1E8F0E010828081826080838081816007
:1016F0008083E0E8F0E0808181608083E1EBF0E0CE
:10170000808184608083E0EBF0E080818160808371
:10171000E1E9F0E080818260808380818160808364
:10172000E0E9F0E0808181608083E1EAF0E080819F
:1017300082608083808181608083E0EAF0E0808144
:1017400081608083EAE7F0E080818460808380812B
:1017500082608083808181608083808180688083D3
:101760001092C10008958093BA0108958E3008F058
:101770008E502091BA0190E4299F90011124877026
:10178000822B80937C0080917A00806480937A0021
:1017900080917A0086FDFCCF80917800909179004D
:1017A000089581508D3008F03DC0E82FF0E0E552FB
:1017B000F44F0C94B412F20BF60BE80BEE0B120C78
:1017C000120CF90BFF0B030C090C120C0D0C130C73
:1017D000809180008F7780938000089580918000B1
:1017E0008F7DF9CF84B58F7784BD089584B58F7DC3
:1017F000FBCF8091B0008F778093B00008958091E7
:10180000B0008F7DF9CF809190008F77809390000A
:101810000895809190008F7DF9CF8091A0008F77FF
:101820008093A00008958091A0008F7DF9CFCF9381
:10183000DF9390E0FC01E853FF4F249184529F4FC7
:10184000FC0184918823C9F090E0880F991FFC0166
:10185000E650FF4FA591B491FC01E051FF4FC591B7
:10186000D49161110DC09FB7F8948C91209582237B
:101870008C938881282328839FBFDF91CF9108957F
:10188000623051F49FB7F8943C91822F8095832366
:101890008C93E8812E2BEFCF8FB7F894EC912E2B01
:1018A0002C938FBFEACF1F93CF93DF93282F30E085
:1018B000F901EC54FF4F8491F901E853FF4FD491A3
:1018C000F901E452FF4FC491CC23A9F0162F8111E6
:1018D0000E94D10BEC2FF0E0EE0FFF1FE051FF4F05
:1018E000A591B4918FB7F894EC91111108C0D095DF
:1018F000DE23DC938FBFDF91CF911F910895DE2B04
:10190000F8CF4F925F926F927F928F929F92AF9299
:10191000BF92CF92DF92EF92FF920F931F93CF93DC
:10192000DF9300D000D01F92CDB7DEB78B01290125
:101930003A019091BB018917C9F09F3F09F490C00B
:101940000F900F900F900F900F90DF91CF911F91FC
:101950000F91FF90EF90DF90CF90BF90AF909F904E
:101960008F907F906F905F904F900895E4E0F1E04A
:1019700024912D8327FDE4CF61E00E94170C8D8117
:10198000882321F09D81923009F0BEC14801B12C1D
:10199000A12C60E072E18AE790E0A50198010E9425
:1019A000951229833A834B835C8369017A0121E094
:1019B000C21AD108E108F1088FEFC816D104E1047A
:1019C000F10409F00CF46FC160E472E48FE090E080
:1019D000A50198010E94951269017A0191E0C91A46
:1019E000D108E108F1082D81223009F010C18FEFF4
:1019F000C816D104E104F10409F00CF492C260E9C4
:101A000070ED83E090E0A50198010E9495126901B4
:101A10007A0191E0C91AD108E108F10883E02FEFBB
:101A2000C216D104E104F10409F00CF433C268E4F5
:101A300078EE81E090E0A50198010E94951269017D
:101A40007A0181E0C81AD108E108F1089FEFC916B0
:101A5000D104E104F10411F00CF0FDC084E01AC2DD
:101A60008093BB01E4E0F1E094919D839F3F09F4F2
:101A700067CF923009F47FC060F4992309F435C030
:101A8000913009F452C097FD5BCF61E00E94170CC2
:101A900079CF2D81233009F494C02430A1F710921E
:101AA000A0001092A1009091A10098609093A100D5
:101AB0009091A10091609093A100282F30E0F9014E
:101AC000E452FF4FE491F0E0EE0FFF1FE051FF4FB3
:101AD0004591549150934B0340934A03F901E853C5
:101AE000FF4FE491E093490347CF14BC15BC94B574
:101AF000926094BD95B5916095BD282F30E0F901B5
:101B0000E452FF4FE491F0E0EE0FFF1FE051FF4F72
:101B1000459154915093670340936603F901E8534C
:101B2000FF4FE491E093650327CF1092800010925D
:101B30008100909181009860909381009091810044
:101B4000916090938100282F30E0F901E452FF4F1B
:101B5000E491F0E0EE0FFF1FE051FF4F45915491EB
:101B60005093600340935F03F901E853FF4FE49102
:101B7000E0935E0301CF1092B0001092B1009091FB
:101B8000B00092609093B0009091B10091609093FA
:101B9000B100282F30E0F901E452FF4FE491F0E06A
:101BA000EE0FFF1FE051FF4F4591549150935903A1
:101BB00040935803F901E853FF4FE491E093570332
:101BC000DBCE10929000109291009091910098605D
:101BD0009093910090919100916090939100282FA3
:101BE00030E0F901E452FF4FE491F0E0EE0FFF1F07
:101BF000E051FF4F4591549150935203409351034C
:101C0000F901E853FF4FE491E0935003B5CE8FEF15
:101C1000C816D104E104F10409F00CF473C068E4BF
:101C200078EE81E090E0A50198010E94951269018B
:101C30007A0191E0C91AD108E108F1082D81222327
:101C400009F44AC12FEFC216D104E104F10411F0E6
:101C50000CF04BC103CF64E274EF80E090E0A5018B
:101C600094010E94951269017A0181E0C81AD10895
:101C7000E108F10885E09FEFC916D104E104F10401
:101C800009F008F407C162E17AE780E090E0A5017D
:101C900094010E94951269017A0181E0C81AD10865
:101CA000E108F10834C181E02D812111F3C095B51F
:101CB000987F892B85BD2FEF3FEFA9014114510477
:101CC0006104710409F049C08D81823009F4C1C0FA
:101CD0000CF0AAC0882309F4ADC0813009F030CEE1
:101CE000D0928900C09288002093610330936203F0
:101CF000409363035093640380916F0082608093EC
:101D00006F001ECE82E0D0CFB12CA12C60E072E13A
:101D10008AE790E0A50198010E94951269017A0175
:101D200081E0C81AD108E108F108C114D10491E09A
:101D3000E906F10404F591E02D81213069F58091E7
:101D40008100887F892B809381002FEF3FEFA901CD
:101D5000411451046104710419F2D801AA0FBB1F88
:101D6000A30192010E94C11228EE33E040E050E04E
:101D70000E947312A9CF68E478EE81E090E0A5019B
:101D800098010E94951269017A0181E0C81AD10870
:101D9000E108F10893E0D0CF8D81833001F5809187
:101DA0009100887F892B809391002FEF3FEFA9014D
:101DB000411451046104710481F6D0929900C092DB
:101DC000980020935303309354034093550350934A
:101DD000560380917100826080937100B1CD2D8196
:101DE000243009F068CF8091A100887F892B8093EF
:101DF000A1002FEF3FEFA9014114510461047104C8
:101E000009F0ABCFD092A900C092A80020934C0358
:101E100030934D0340934E0350934F0380917200D3
:101E20008260809372008CCD9D81933031F294302A
:101E300049F386CDC7BC2093680330936903409370
:101E40006A0350936B0380916E00826080936E00F2
:101E500077CDC092B30020935A0330935B03409335
:101E60005C0350935D0380917000826080937000EA
:101E700067CDC980DA80EB80FC809AE0F594E79426
:101E8000D794C7949A95D1F721E0C21AD108E108F6
:101E9000F10887E09091B100987F892B8093B10081
:101EA0000ACF84E02FEFC216D104E104F10409F057
:101EB00008F4FDCEC980DA80EB80FC808AE0F594DE
:101EC000E794D794C7948A95D1F791E0C91AD108BD
:101ED000E108F10885E0EBCE83E09FEFC916D1045D
:101EE000E104F10409F00CF4E2CE62E17AE780E06B
:101EF00090E0A50194010E94951269017A0181E0A8
:101F0000C81AD108E108F1089D81992351F28FEF99
:101F1000C816D104E104F10411F008F0AACF86E05C
:101F2000B9CF82E0B7CF8230A1F028F4882341F006
:101F3000813049F008958330E9F0843009F1089543
:101F400010926E00089580916F008D7F80936F00D6
:101F50000895809170008D7F8093700081E0809360
:101F6000B0008091B100887F84608093B1001092AE
:101F7000B3000895809171008D7F80937100089562
:101F8000809172008D7F809372000895CF93C82F47
:101F90008091BB01C8130DC0E4E0F1E084919FEF94
:101FA0009093BB010E94930F60E08C2FCF910C9413
:101FB000530C8FEFF7CF1F920F920FB60F92112491
:101FC0002F933F934F935F936F937F938F939F9341
:101FD000AF93BF93EF93FF9380915A0390915B036C
:101FE000A0915C03B0915D03892B8A2B8B2BD1F1DF
:101FF00090915703E0915803F0915903808189270C
:10200000808380915A0390915B03A0915C03B0910F
:102010005D03181619061A061B069CF480915A03D4
:1020200090915B03A0915C03B0915D030197A109BE
:10203000B10980935A0390935B03A0935C03B09320
:102040005D03FF91EF91BF91AF919F918F917F9130
:102050006F915F914F913F912F910F900FBE0F9015
:102060001F9018958091BB010E94C60FEACF08957A
:10207000F8940C94F1125058BB27AA270E945310D1
:102080000C94A4110E94961138F00E949D1120F02A
:1020900039F49F3F19F426F40C9493110EF4E09553
:1020A000E7FB0C948D11E92F0E94B51158F3BA1774
:1020B000620773078407950720F079F4A6F50C945E
:1020C000D7110EF4E0950B2EBA2FA02D0B01B901FC
:1020D00090010C01CA01A0011124FF27591B99F09E
:1020E000593F50F4503E68F11A16F040A22F232FAA
:1020F000342F4427585FF3CF469537952795A795FA
:10210000F0405395C9F77EF41F16BA0B620B730BA0
:10211000840BBAF09150A1F0FF0FBB1F661F771F11
:10212000881FC2F70EC0BA0F621F731F841F48F4C6
:10213000879577956795B795F7959E3F08F0B0CF4F
:102140009395880F08F09927EE0F97958795089536
:102150000E94BC100C94A4110E949D1158F00E9482
:10216000961140F029F45F3F29F00C948D11511124
:102170000C94D8110C9493110E94B51168F3992313
:10218000B1F3552391F3951B550BBB27AA27621773
:102190007307840738F09F5F5F4F220F331F441F80
:1021A000AA1FA9F335D00E2E3AF0E0E832D09150B4
:1021B0005040E695001CCAF72BD0FE2F29D0660FA1
:1021C000771F881FBB1F261737074807AB07B0E8E4
:1021D00009F0BB0B802DBF01FF2793585F4F3AF0EA
:1021E0009E3F510578F00C948D110C94D8115F3FEF
:1021F000E4F3983ED4F3869577956795B795F79570
:102200009F5FC9F7880F911D9695879597F9089557
:10221000E1E0660F771F881FBB1F621773078407F3
:10222000BA0720F0621B730B840BBA0BEE1F88F702
:10223000E09508950E9421116894B1110C94D81171
:1022400008950E94BD1188F09F5798F0B92F9927E3
:10225000B751B0F0E1F0660F771F881F991F1AF091
:10226000BA95C9F714C0B13091F00E94D711B1E00E
:1022700008950C94D711672F782F8827B85F39F00D
:10228000B93FCCF3869577956795B395D9F73EF42A
:1022900090958095709561957F4F8F4F9F4F0895D2
:1022A000E89409C097FB3EF49095809570956195F0
:1022B0007F4F8F4F9F4F9923A9F0F92F96E9BB27A6
:1022C0009395F695879577956795B795F111F8CF22
:1022D000FAF4BB0F11F460FF1BC06F5F7F4F8F4F8D
:1022E0009F4F16C0882311F096E911C0772321F083
:1022F0009EE8872F762F05C0662371F096E8862F1B
:1023000070E060E02AF09A95660F771F881FDAF771
:10231000880F9695879597F9089597F99F6780E8B4
:1023200070E060E008959FEF80EC089500240A9427
:102330001616170618060906089500240A941216A0
:102340001306140605060895092E0394000C11F4D3
:10235000882352F0BB0F40F4BF2B11F460FF04C080
:102360006F5F7F4F8F4F9F4F089557FD9058440FD9
:10237000551F59F05F3F71F04795880F97FB991FE4
:1023800061F09F3F79F087950895121613061406A1
:10239000551FF2CF4695F1DF08C01616170618062E
:1023A000991FF1CF86957105610508940895E89409
:1023B000BB2766277727CB0197F908950E94F11173
:1023C0000C94A4110E94961138F00E949D1120F0E7
:1023D000952311F00C948D110C94931111240C94ED
:1023E000D8110E94B51170F3959FC1F3950F50E07D
:1023F000551F629FF001729FBB27F00DB11D639FB7
:10240000AA27F00DB11DAA1F649F6627B00DA11D5C
:10241000661F829F2227B00DA11D621F739FB00D02
:10242000A11D621F839FA00D611D221F749F332772
:10243000A00D611D231F849F600D211D822F762F0B
:102440006A2F11249F5750409AF0F1F088234AF0E8
:10245000EE0FFF1FBB1F661F771F881F9150504054
:10246000A9F79E3F510580F00C948D110C94D81162
:102470005F3FE4F3983ED4F3869577956795B795DB
:10248000F795E7959F5FC1F7FE2B880F911D9695F5
:10249000879597F90895AA1BBB1B51E107C0AA1F96
:1024A000BB1FA617B70710F0A61BB70B881F991FF5
:1024B0005A95A9F780959095BC01CD01089597FB99
:1024C000072E16F4009407D077FD09D00E944B1216
:1024D00007FC05D03EF4909581959F4F0895709527
:1024E00061957F4F0895A1E21A2EAA1BBB1BFD0127
:1024F0000DC0AA1FBB1FEE1FFF1FA217B307E407E3
:10250000F50720F0A21BB30BE40BF50B661F771F3A
:10251000881F991F1A9469F760957095809590951A
:102520009B01AC01BD01CF010895052E97FB1EF460
:1025300000940E94AC1257FD07D00E94731207FC52
:1025400003D04EF40C94AC125095409530952195E3
:102550003F4F4F4F5F4F08959095809570956195CF
:102560007F4F8F4F9F4F0895EE0FFF1F0590F491FF
:10257000E02D09940E94CC12B7FF0895821B930BA3
:1025800008950E94CC12A59F900DB49F900DA49F1A
:10259000800D911D11240895A29FB001B39FC00129
:1025A000A39F700D811D1124911DB29F700D811D7F
:1025B0001124911D0895F999FECF92BD81BDF89A1D
:1025C000992780B50895262FF999FECF1FBA92BD9D
:1025D00081BD20BD0FB6F894FA9AF99A0FBE019604
:0625E0000895F894FFCFFE
:1025E6000101010000E7032003200314150000E7A2
:1025F60003C201C20112133200C201640064002842
:10260600293200C2016400640026273200C2016438
:1026160000640024253200C2016400640022230005
:10262600003C000F000F0020210A002800170017A9
:10263600001E1F00000100000000001C1D0000011C
:1026460000000000001A1B00001E000A000A00100D
:10265600116400E703FA00FA000E0F3200C20164AB
:102666000064000C0D9CFF6400000000000A0B00D3
:102676000064002D002D0008090000E703F401F4B2
:102686000106070000E7030F000F0004050000E73E
:10269600038A028A020203FFFFFF01FF46414E0042
:1026A6005350440043524100444C45005453540097
:1026B60052535400490049544800544F4600545060
:1026C6004C0041564700534C500044454C00414491
:1026D600430046534C00465348002A430045525295
:1026E600002D2D2D00505F381A1792905E1012EFB4
:1026F600EFEFEFEFEFEFEFEFEFEFEFEFEFEFEFEFE4
:10270600EFEFEFEFEFEFEFEFEFEFEFEFEFEFEF368C
:10271600EFEFBFEFEFEFEFEFEFEFEFEFEFEFEFEFF3
:10272600EFEFEFEFEFEF1491F019B0B49095DFEF04
:10273600EFF1EF549934EFBD92B1D9D9EFEFEFEF46
:10274600EFEFEFEFEFEFEFEFEFEFEFEFEFEFEFEF93
:10275600EFEFEFEFEFEFEFEFEFEFEFEFEFEFEFEF83
:10276600EFEFEFEFEFEFEFEFEFEFEFEFEFEFEFEF73
:10277600EFEFEFEFEFEFEFEFEFEFEFEFEFEFEFEF63
:10278600EFEFEFEFEFEFEFEFEFEFEFEFEFEFEFEF53
:10279600EFEFEFEFEFEFEFEFEFEFEFEFEFEFEFEF43
:1027A600EFEFEFEFEFEFEFEFEFEFEFEFEFEFEFEF33
:1027B600EFEFEFEFEFEFEFEFEFEFEFEFEFEFEFEF23
:1027C600EFEFEFEFEFEFEFEFEFEFEFEFEFEFEFEF13
:1027D600EFEFEFEFEFEFEFEFEFEFEFEFEFEFEFEF03
:0627E600EFEFEFEFFF0032
:00000001FF
